{
  "contracts/MarketPlace.sol": {
    "JobMarketplace": {
      "abi": [
        {
          "anonymous": false,
          "inputs": [
            {
              "indexed": true,
              "internalType": "bytes32",
              "name": "jobId",
              "type": "bytes32"
            },
            {
              "indexed": true,
              "internalType": "address",
              "name": "applicant",
              "type": "address"
            }
          ],
          "name": "JobFilled",
          "type": "event"
        },
        {
          "anonymous": false,
          "inputs": [
            {
              "indexed": true,
              "internalType": "bytes32",
              "name": "jobId",
              "type": "bytes32"
            },
            {
              "indexed": false,
              "internalType": "string",
              "name": "description",
              "type": "string"
            },
            {
              "indexed": true,
              "internalType": "address",
              "name": "employer",
              "type": "address"
            }
          ],
          "name": "JobPosted",
          "type": "event"
        },
        {
          "inputs": [
            {
              "internalType": "bytes32",
              "name": "jobId",
              "type": "bytes32"
            }
          ],
          "name": "applyForJob",
          "outputs": [],
          "stateMutability": "nonpayable",
          "type": "function"
        },
        {
          "inputs": [
            {
              "internalType": "bytes32",
              "name": "jobId",
              "type": "bytes32"
            }
          ],
          "name": "getJob",
          "outputs": [
            {
              "internalType": "string",
              "name": "",
              "type": "string"
            },
            {
              "internalType": "address",
              "name": "",
              "type": "address"
            },
            {
              "internalType": "bool",
              "name": "",
              "type": "bool"
            },
            {
              "internalType": "address",
              "name": "",
              "type": "address"
            }
          ],
          "stateMutability": "view",
          "type": "function"
        },
        {
          "inputs": [
            {
              "internalType": "bytes32",
              "name": "",
              "type": "bytes32"
            }
          ],
          "name": "jobs",
          "outputs": [
            {
              "internalType": "string",
              "name": "description",
              "type": "string"
            },
            {
              "internalType": "address",
              "name": "employer",
              "type": "address"
            },
            {
              "internalType": "bool",
              "name": "filled",
              "type": "bool"
            },
            {
              "internalType": "address",
              "name": "applicant",
              "type": "address"
            }
          ],
          "stateMutability": "view",
          "type": "function"
        },
        {
          "inputs": [
            {
              "internalType": "bytes32",
              "name": "jobId",
              "type": "bytes32"
            },
            {
              "internalType": "string",
              "name": "description",
              "type": "string"
            }
          ],
          "name": "postJob",
          "outputs": [],
          "stateMutability": "nonpayable",
          "type": "function"
        }
      ],
      "evm": {
        "bytecode": {
          "linkReferences": {},
          "object": "6080604052348015600f57600080fd5b50610d118061001f6000396000f3fe608060405234801561001057600080fd5b506004361061004c5760003560e01c806338ed7cfc14610051578063a15184c714610084578063ef4f772a146100a0578063f729cf0d146100bc575b600080fd5b61006b6004803603810190610066919061066f565b6100ef565b60405161007b9493929190610788565b60405180910390f35b61009e6004803603810190610099919061066f565b6101f4565b005b6100ba60048036038101906100b59190610909565b610304565b005b6100d660048036038101906100d1919061066f565b610481565b6040516100e69493929190610788565b60405180910390f35b600060205280600052604060002060009150905080600001805461011290610994565b80601f016020809104026020016040519081016040528092919081815260200182805461013e90610994565b801561018b5780601f106101605761010080835404028352916020019161018b565b820191906000526020600020905b81548152906001019060200180831161016e57829003601f168201915b5050505050908060010160009054906101000a900473ffffffffffffffffffffffffffffffffffffffff16908060010160149054906101000a900460ff16908060020160009054906101000a900473ffffffffffffffffffffffffffffffffffffffff16905084565b600080600083815260200190815260200160002090508060010160149054906101000a900460ff161561025c576040517f08c379a000000000000000000000000000000000000000000000000000000000815260040161025390610a11565b60405180910390fd5b60018160010160146101000a81548160ff021916908315150217905550338160020160006101000a81548173ffffffffffffffffffffffffffffffffffffffff021916908373ffffffffffffffffffffffffffffffffffffffff1602179055503373ffffffffffffffffffffffffffffffffffffffff16827f4fc75662aa18ca1b456a40452ebd8dd923d3da569f0dfe5fd08cf7883228f69e60405160405180910390a35050565b60405180608001604052808281526020013373ffffffffffffffffffffffffffffffffffffffff168152602001600015158152602001600073ffffffffffffffffffffffffffffffffffffffff16815250600080848152602001908152602001600020600082015181600001908161037c9190610be7565b5060208201518160010160006101000a81548173ffffffffffffffffffffffffffffffffffffffff021916908373ffffffffffffffffffffffffffffffffffffffff16021790555060408201518160010160146101000a81548160ff02191690831515021790555060608201518160020160006101000a81548173ffffffffffffffffffffffffffffffffffffffff021916908373ffffffffffffffffffffffffffffffffffffffff1602179055509050503373ffffffffffffffffffffffffffffffffffffffff16827f718dfffe33d35a439c62d9928c8b6f7d25ca804150c38294e881be93852667fa836040516104759190610cb9565b60405180910390a35050565b60606000806000806000808781526020019081526020016000206040518060800160405290816000820180546104b690610994565b80601f01602080910402602001604051908101604052809291908181526020018280546104e290610994565b801561052f5780601f106105045761010080835404028352916020019161052f565b820191906000526020600020905b81548152906001019060200180831161051257829003601f168201915b505050505081526020016001820160009054906101000a900473ffffffffffffffffffffffffffffffffffffffff1673ffffffffffffffffffffffffffffffffffffffff1673ffffffffffffffffffffffffffffffffffffffff1681526020016001820160149054906101000a900460ff161515151581526020016002820160009054906101000a900473ffffffffffffffffffffffffffffffffffffffff1673ffffffffffffffffffffffffffffffffffffffff1673ffffffffffffffffffffffffffffffffffffffff1681525050905080600001518160200151826040015183606001519450945094509450509193509193565b6000604051905090565b600080fd5b600080fd5b6000819050919050565b61064c81610639565b811461065757600080fd5b50565b60008135905061066981610643565b92915050565b6000602082840312156106855761068461062f565b5b60006106938482850161065a565b91505092915050565b600081519050919050565b600082825260208201905092915050565b60005b838110156106d65780820151818401526020810190506106bb565b60008484015250505050565b6000601f19601f8301169050919050565b60006106fe8261069c565b61070881856106a7565b93506107188185602086016106b8565b610721816106e2565b840191505092915050565b600073ffffffffffffffffffffffffffffffffffffffff82169050919050565b60006107578261072c565b9050919050565b6107678161074c565b82525050565b60008115159050919050565b6107828161076d565b82525050565b600060808201905081810360008301526107a281876106f3565b90506107b1602083018661075e565b6107be6040830185610779565b6107cb606083018461075e565b95945050505050565b600080fd5b600080fd5b7f4e487b7100000000000000000000000000000000000000000000000000000000600052604160045260246000fd5b610816826106e2565b810181811067ffffffffffffffff82111715610835576108346107de565b5b80604052505050565b6000610848610625565b9050610854828261080d565b919050565b600067ffffffffffffffff821115610874576108736107de565b5b61087d826106e2565b9050602081019050919050565b82818337600083830152505050565b60006108ac6108a784610859565b61083e565b9050828152602081018484840111156108c8576108c76107d9565b5b6108d384828561088a565b509392505050565b600082601f8301126108f0576108ef6107d4565b5b8135610900848260208601610899565b91505092915050565b600080604083850312156109205761091f61062f565b5b600061092e8582860161065a565b925050602083013567ffffffffffffffff81111561094f5761094e610634565b5b61095b858286016108db565b9150509250929050565b7f4e487b7100000000000000000000000000000000000000000000000000000000600052602260045260246000fd5b600060028204905060018216806109ac57607f821691505b6020821081036109bf576109be610965565b5b50919050565b7f4a6f6220616c72656164792066696c6c65640000000000000000000000000000600082015250565b60006109fb6012836106a7565b9150610a06826109c5565b602082019050919050565b60006020820190508181036000830152610a2a816109ee565b9050919050565b60008190508160005260206000209050919050565b60006020601f8301049050919050565b600082821b905092915050565b600060088302610a937fffffffffffffffffffffffffffffffffffffffffffffffffffffffffffffffff82610a56565b610a9d8683610a56565b95508019841693508086168417925050509392505050565b6000819050919050565b6000819050919050565b6000610ae4610adf610ada84610ab5565b610abf565b610ab5565b9050919050565b6000819050919050565b610afe83610ac9565b610b12610b0a82610aeb565b848454610a63565b825550505050565b600090565b610b27610b1a565b610b32818484610af5565b505050565b5b81811015610b5657610b4b600082610b1f565b600181019050610b38565b5050565b601f821115610b9b57610b6c81610a31565b610b7584610a46565b81016020851015610b84578190505b610b98610b9085610a46565b830182610b37565b50505b505050565b600082821c905092915050565b6000610bbe60001984600802610ba0565b1980831691505092915050565b6000610bd78383610bad565b9150826002028217905092915050565b610bf08261069c565b67ffffffffffffffff811115610c0957610c086107de565b5b610c138254610994565b610c1e828285610b5a565b600060209050601f831160018114610c515760008415610c3f578287015190505b610c498582610bcb565b865550610cb1565b601f198416610c5f86610a31565b60005b82811015610c8757848901518255600182019150602085019450602081019050610c62565b86831015610ca45784890151610ca0601f891682610bad565b8355505b6001600288020188555050505b505050505050565b60006020820190508181036000830152610cd381846106f3565b90509291505056fea2646970667358221220f56b0d401de9545ae8da0b18326af0758bbabfc51a8e0d3c37dbd8dd13a13ee764736f6c634300081a0033",
          "opcodes": "PUSH1 0x80 PUSH1 0x40 MSTORE CALLVALUE DUP1 ISZERO PUSH1 0xF JUMPI PUSH1 0x0 DUP1 REVERT JUMPDEST POP PUSH2 0xD11 DUP1 PUSH2 0x1F PUSH1 0x0 CODECOPY PUSH1 0x0 RETURN INVALID PUSH1 0x80 PUSH1 0x40 MSTORE CALLVALUE DUP1 ISZERO PUSH2 0x10 JUMPI PUSH1 0x0 DUP1 REVERT JUMPDEST POP PUSH1 0x4 CALLDATASIZE LT PUSH2 0x4C JUMPI PUSH1 0x0 CALLDATALOAD PUSH1 0xE0 SHR DUP1 PUSH4 0x38ED7CFC EQ PUSH2 0x51 JUMPI DUP1 PUSH4 0xA15184C7 EQ PUSH2 0x84 JUMPI DUP1 PUSH4 0xEF4F772A EQ PUSH2 0xA0 JUMPI DUP1 PUSH4 0xF729CF0D EQ PUSH2 0xBC JUMPI JUMPDEST PUSH1 0x0 DUP1 REVERT JUMPDEST PUSH2 0x6B PUSH1 0x4 DUP1 CALLDATASIZE SUB DUP2 ADD SWAP1 PUSH2 0x66 SWAP2 SWAP1 PUSH2 0x66F JUMP JUMPDEST PUSH2 0xEF JUMP JUMPDEST PUSH1 0x40 MLOAD PUSH2 0x7B SWAP5 SWAP4 SWAP3 SWAP2 SWAP1 PUSH2 0x788 JUMP JUMPDEST PUSH1 0x40 MLOAD DUP1 SWAP2 SUB SWAP1 RETURN JUMPDEST PUSH2 0x9E PUSH1 0x4 DUP1 CALLDATASIZE SUB DUP2 ADD SWAP1 PUSH2 0x99 SWAP2 SWAP1 PUSH2 0x66F JUMP JUMPDEST PUSH2 0x1F4 JUMP JUMPDEST STOP JUMPDEST PUSH2 0xBA PUSH1 0x4 DUP1 CALLDATASIZE SUB DUP2 ADD SWAP1 PUSH2 0xB5 SWAP2 SWAP1 PUSH2 0x909 JUMP JUMPDEST PUSH2 0x304 JUMP JUMPDEST STOP JUMPDEST PUSH2 0xD6 PUSH1 0x4 DUP1 CALLDATASIZE SUB DUP2 ADD SWAP1 PUSH2 0xD1 SWAP2 SWAP1 PUSH2 0x66F JUMP JUMPDEST PUSH2 0x481 JUMP JUMPDEST PUSH1 0x40 MLOAD PUSH2 0xE6 SWAP5 SWAP4 SWAP3 SWAP2 SWAP1 PUSH2 0x788 JUMP JUMPDEST PUSH1 0x40 MLOAD DUP1 SWAP2 SUB SWAP1 RETURN JUMPDEST PUSH1 0x0 PUSH1 0x20 MSTORE DUP1 PUSH1 0x0 MSTORE PUSH1 0x40 PUSH1 0x0 KECCAK256 PUSH1 0x0 SWAP2 POP SWAP1 POP DUP1 PUSH1 0x0 ADD DUP1 SLOAD PUSH2 0x112 SWAP1 PUSH2 0x994 JUMP JUMPDEST DUP1 PUSH1 0x1F ADD PUSH1 0x20 DUP1 SWAP2 DIV MUL PUSH1 0x20 ADD PUSH1 0x40 MLOAD SWAP1 DUP2 ADD PUSH1 0x40 MSTORE DUP1 SWAP3 SWAP2 SWAP1 DUP2 DUP2 MSTORE PUSH1 0x20 ADD DUP3 DUP1 SLOAD PUSH2 0x13E SWAP1 PUSH2 0x994 JUMP JUMPDEST DUP1 ISZERO PUSH2 0x18B JUMPI DUP1 PUSH1 0x1F LT PUSH2 0x160 JUMPI PUSH2 0x100 DUP1 DUP4 SLOAD DIV MUL DUP4 MSTORE SWAP2 PUSH1 0x20 ADD SWAP2 PUSH2 0x18B JUMP JUMPDEST DUP3 ADD SWAP2 SWAP1 PUSH1 0x0 MSTORE PUSH1 0x20 PUSH1 0x0 KECCAK256 SWAP1 JUMPDEST DUP2 SLOAD DUP2 MSTORE SWAP1 PUSH1 0x1 ADD SWAP1 PUSH1 0x20 ADD DUP1 DUP4 GT PUSH2 0x16E JUMPI DUP3 SWAP1 SUB PUSH1 0x1F AND DUP3 ADD SWAP2 JUMPDEST POP POP POP POP POP SWAP1 DUP1 PUSH1 0x1 ADD PUSH1 0x0 SWAP1 SLOAD SWAP1 PUSH2 0x100 EXP SWAP1 DIV PUSH20 0xFFFFFFFFFFFFFFFFFFFFFFFFFFFFFFFFFFFFFFFF AND SWAP1 DUP1 PUSH1 0x1 ADD PUSH1 0x14 SWAP1 SLOAD SWAP1 PUSH2 0x100 EXP SWAP1 DIV PUSH1 0xFF AND SWAP1 DUP1 PUSH1 0x2 ADD PUSH1 0x0 SWAP1 SLOAD SWAP1 PUSH2 0x100 EXP SWAP1 DIV PUSH20 0xFFFFFFFFFFFFFFFFFFFFFFFFFFFFFFFFFFFFFFFF AND SWAP1 POP DUP5 JUMP JUMPDEST PUSH1 0x0 DUP1 PUSH1 0x0 DUP4 DUP2 MSTORE PUSH1 0x20 ADD SWAP1 DUP2 MSTORE PUSH1 0x20 ADD PUSH1 0x0 KECCAK256 SWAP1 POP DUP1 PUSH1 0x1 ADD PUSH1 0x14 SWAP1 SLOAD SWAP1 PUSH2 0x100 EXP SWAP1 DIV PUSH1 0xFF AND ISZERO PUSH2 0x25C JUMPI PUSH1 0x40 MLOAD PUSH32 0x8C379A000000000000000000000000000000000000000000000000000000000 DUP2 MSTORE PUSH1 0x4 ADD PUSH2 0x253 SWAP1 PUSH2 0xA11 JUMP JUMPDEST PUSH1 0x40 MLOAD DUP1 SWAP2 SUB SWAP1 REVERT JUMPDEST PUSH1 0x1 DUP2 PUSH1 0x1 ADD PUSH1 0x14 PUSH2 0x100 EXP DUP2 SLOAD DUP2 PUSH1 0xFF MUL NOT AND SWAP1 DUP4 ISZERO ISZERO MUL OR SWAP1 SSTORE POP CALLER DUP2 PUSH1 0x2 ADD PUSH1 0x0 PUSH2 0x100 EXP DUP2 SLOAD DUP2 PUSH20 0xFFFFFFFFFFFFFFFFFFFFFFFFFFFFFFFFFFFFFFFF MUL NOT AND SWAP1 DUP4 PUSH20 0xFFFFFFFFFFFFFFFFFFFFFFFFFFFFFFFFFFFFFFFF AND MUL OR SWAP1 SSTORE POP CALLER PUSH20 0xFFFFFFFFFFFFFFFFFFFFFFFFFFFFFFFFFFFFFFFF AND DUP3 PUSH32 0x4FC75662AA18CA1B456A40452EBD8DD923D3DA569F0DFE5FD08CF7883228F69E PUSH1 0x40 MLOAD PUSH1 0x40 MLOAD DUP1 SWAP2 SUB SWAP1 LOG3 POP POP JUMP JUMPDEST PUSH1 0x40 MLOAD DUP1 PUSH1 0x80 ADD PUSH1 0x40 MSTORE DUP1 DUP3 DUP2 MSTORE PUSH1 0x20 ADD CALLER PUSH20 0xFFFFFFFFFFFFFFFFFFFFFFFFFFFFFFFFFFFFFFFF AND DUP2 MSTORE PUSH1 0x20 ADD PUSH1 0x0 ISZERO ISZERO DUP2 MSTORE PUSH1 0x20 ADD PUSH1 0x0 PUSH20 0xFFFFFFFFFFFFFFFFFFFFFFFFFFFFFFFFFFFFFFFF AND DUP2 MSTORE POP PUSH1 0x0 DUP1 DUP5 DUP2 MSTORE PUSH1 0x20 ADD SWAP1 DUP2 MSTORE PUSH1 0x20 ADD PUSH1 0x0 KECCAK256 PUSH1 0x0 DUP3 ADD MLOAD DUP2 PUSH1 0x0 ADD SWAP1 DUP2 PUSH2 0x37C SWAP2 SWAP1 PUSH2 0xBE7 JUMP JUMPDEST POP PUSH1 0x20 DUP3 ADD MLOAD DUP2 PUSH1 0x1 ADD PUSH1 0x0 PUSH2 0x100 EXP DUP2 SLOAD DUP2 PUSH20 0xFFFFFFFFFFFFFFFFFFFFFFFFFFFFFFFFFFFFFFFF MUL NOT AND SWAP1 DUP4 PUSH20 0xFFFFFFFFFFFFFFFFFFFFFFFFFFFFFFFFFFFFFFFF AND MUL OR SWAP1 SSTORE POP PUSH1 0x40 DUP3 ADD MLOAD DUP2 PUSH1 0x1 ADD PUSH1 0x14 PUSH2 0x100 EXP DUP2 SLOAD DUP2 PUSH1 0xFF MUL NOT AND SWAP1 DUP4 ISZERO ISZERO MUL OR SWAP1 SSTORE POP PUSH1 0x60 DUP3 ADD MLOAD DUP2 PUSH1 0x2 ADD PUSH1 0x0 PUSH2 0x100 EXP DUP2 SLOAD DUP2 PUSH20 0xFFFFFFFFFFFFFFFFFFFFFFFFFFFFFFFFFFFFFFFF MUL NOT AND SWAP1 DUP4 PUSH20 0xFFFFFFFFFFFFFFFFFFFFFFFFFFFFFFFFFFFFFFFF AND MUL OR SWAP1 SSTORE POP SWAP1 POP POP CALLER PUSH20 0xFFFFFFFFFFFFFFFFFFFFFFFFFFFFFFFFFFFFFFFF AND DUP3 PUSH32 0x718DFFFE33D35A439C62D9928C8B6F7D25CA804150C38294E881BE93852667FA DUP4 PUSH1 0x40 MLOAD PUSH2 0x475 SWAP2 SWAP1 PUSH2 0xCB9 JUMP JUMPDEST PUSH1 0x40 MLOAD DUP1 SWAP2 SUB SWAP1 LOG3 POP POP JUMP JUMPDEST PUSH1 0x60 PUSH1 0x0 DUP1 PUSH1 0x0 DUP1 PUSH1 0x0 DUP1 DUP8 DUP2 MSTORE PUSH1 0x20 ADD SWAP1 DUP2 MSTORE PUSH1 0x20 ADD PUSH1 0x0 KECCAK256 PUSH1 0x40 MLOAD DUP1 PUSH1 0x80 ADD PUSH1 0x40 MSTORE SWAP1 DUP2 PUSH1 0x0 DUP3 ADD DUP1 SLOAD PUSH2 0x4B6 SWAP1 PUSH2 0x994 JUMP JUMPDEST DUP1 PUSH1 0x1F ADD PUSH1 0x20 DUP1 SWAP2 DIV MUL PUSH1 0x20 ADD PUSH1 0x40 MLOAD SWAP1 DUP2 ADD PUSH1 0x40 MSTORE DUP1 SWAP3 SWAP2 SWAP1 DUP2 DUP2 MSTORE PUSH1 0x20 ADD DUP3 DUP1 SLOAD PUSH2 0x4E2 SWAP1 PUSH2 0x994 JUMP JUMPDEST DUP1 ISZERO PUSH2 0x52F JUMPI DUP1 PUSH1 0x1F LT PUSH2 0x504 JUMPI PUSH2 0x100 DUP1 DUP4 SLOAD DIV MUL DUP4 MSTORE SWAP2 PUSH1 0x20 ADD SWAP2 PUSH2 0x52F JUMP JUMPDEST DUP3 ADD SWAP2 SWAP1 PUSH1 0x0 MSTORE PUSH1 0x20 PUSH1 0x0 KECCAK256 SWAP1 JUMPDEST DUP2 SLOAD DUP2 MSTORE SWAP1 PUSH1 0x1 ADD SWAP1 PUSH1 0x20 ADD DUP1 DUP4 GT PUSH2 0x512 JUMPI DUP3 SWAP1 SUB PUSH1 0x1F AND DUP3 ADD SWAP2 JUMPDEST POP POP POP POP POP DUP2 MSTORE PUSH1 0x20 ADD PUSH1 0x1 DUP3 ADD PUSH1 0x0 SWAP1 SLOAD SWAP1 PUSH2 0x100 EXP SWAP1 DIV PUSH20 0xFFFFFFFFFFFFFFFFFFFFFFFFFFFFFFFFFFFFFFFF AND PUSH20 0xFFFFFFFFFFFFFFFFFFFFFFFFFFFFFFFFFFFFFFFF AND PUSH20 0xFFFFFFFFFFFFFFFFFFFFFFFFFFFFFFFFFFFFFFFF AND DUP2 MSTORE PUSH1 0x20 ADD PUSH1 0x1 DUP3 ADD PUSH1 0x14 SWAP1 SLOAD SWAP1 PUSH2 0x100 EXP SWAP1 DIV PUSH1 0xFF AND ISZERO ISZERO ISZERO ISZERO DUP2 MSTORE PUSH1 0x20 ADD PUSH1 0x2 DUP3 ADD PUSH1 0x0 SWAP1 SLOAD SWAP1 PUSH2 0x100 EXP SWAP1 DIV PUSH20 0xFFFFFFFFFFFFFFFFFFFFFFFFFFFFFFFFFFFFFFFF AND PUSH20 0xFFFFFFFFFFFFFFFFFFFFFFFFFFFFFFFFFFFFFFFF AND PUSH20 0xFFFFFFFFFFFFFFFFFFFFFFFFFFFFFFFFFFFFFFFF AND DUP2 MSTORE POP POP SWAP1 POP DUP1 PUSH1 0x0 ADD MLOAD DUP2 PUSH1 0x20 ADD MLOAD DUP3 PUSH1 0x40 ADD MLOAD DUP4 PUSH1 0x60 ADD MLOAD SWAP5 POP SWAP5 POP SWAP5 POP SWAP5 POP POP SWAP2 SWAP4 POP SWAP2 SWAP4 JUMP JUMPDEST PUSH1 0x0 PUSH1 0x40 MLOAD SWAP1 POP SWAP1 JUMP JUMPDEST PUSH1 0x0 DUP1 REVERT JUMPDEST PUSH1 0x0 DUP1 REVERT JUMPDEST PUSH1 0x0 DUP2 SWAP1 POP SWAP2 SWAP1 POP JUMP JUMPDEST PUSH2 0x64C DUP2 PUSH2 0x639 JUMP JUMPDEST DUP2 EQ PUSH2 0x657 JUMPI PUSH1 0x0 DUP1 REVERT JUMPDEST POP JUMP JUMPDEST PUSH1 0x0 DUP2 CALLDATALOAD SWAP1 POP PUSH2 0x669 DUP2 PUSH2 0x643 JUMP JUMPDEST SWAP3 SWAP2 POP POP JUMP JUMPDEST PUSH1 0x0 PUSH1 0x20 DUP3 DUP5 SUB SLT ISZERO PUSH2 0x685 JUMPI PUSH2 0x684 PUSH2 0x62F JUMP JUMPDEST JUMPDEST PUSH1 0x0 PUSH2 0x693 DUP5 DUP3 DUP6 ADD PUSH2 0x65A JUMP JUMPDEST SWAP2 POP POP SWAP3 SWAP2 POP POP JUMP JUMPDEST PUSH1 0x0 DUP2 MLOAD SWAP1 POP SWAP2 SWAP1 POP JUMP JUMPDEST PUSH1 0x0 DUP3 DUP3 MSTORE PUSH1 0x20 DUP3 ADD SWAP1 POP SWAP3 SWAP2 POP POP JUMP JUMPDEST PUSH1 0x0 JUMPDEST DUP4 DUP2 LT ISZERO PUSH2 0x6D6 JUMPI DUP1 DUP3 ADD MLOAD DUP2 DUP5 ADD MSTORE PUSH1 0x20 DUP2 ADD SWAP1 POP PUSH2 0x6BB JUMP JUMPDEST PUSH1 0x0 DUP5 DUP5 ADD MSTORE POP POP POP POP JUMP JUMPDEST PUSH1 0x0 PUSH1 0x1F NOT PUSH1 0x1F DUP4 ADD AND SWAP1 POP SWAP2 SWAP1 POP JUMP JUMPDEST PUSH1 0x0 PUSH2 0x6FE DUP3 PUSH2 0x69C JUMP JUMPDEST PUSH2 0x708 DUP2 DUP6 PUSH2 0x6A7 JUMP JUMPDEST SWAP4 POP PUSH2 0x718 DUP2 DUP6 PUSH1 0x20 DUP7 ADD PUSH2 0x6B8 JUMP JUMPDEST PUSH2 0x721 DUP2 PUSH2 0x6E2 JUMP JUMPDEST DUP5 ADD SWAP2 POP POP SWAP3 SWAP2 POP POP JUMP JUMPDEST PUSH1 0x0 PUSH20 0xFFFFFFFFFFFFFFFFFFFFFFFFFFFFFFFFFFFFFFFF DUP3 AND SWAP1 POP SWAP2 SWAP1 POP JUMP JUMPDEST PUSH1 0x0 PUSH2 0x757 DUP3 PUSH2 0x72C JUMP JUMPDEST SWAP1 POP SWAP2 SWAP1 POP JUMP JUMPDEST PUSH2 0x767 DUP2 PUSH2 0x74C JUMP JUMPDEST DUP3 MSTORE POP POP JUMP JUMPDEST PUSH1 0x0 DUP2 ISZERO ISZERO SWAP1 POP SWAP2 SWAP1 POP JUMP JUMPDEST PUSH2 0x782 DUP2 PUSH2 0x76D JUMP JUMPDEST DUP3 MSTORE POP POP JUMP JUMPDEST PUSH1 0x0 PUSH1 0x80 DUP3 ADD SWAP1 POP DUP2 DUP2 SUB PUSH1 0x0 DUP4 ADD MSTORE PUSH2 0x7A2 DUP2 DUP8 PUSH2 0x6F3 JUMP JUMPDEST SWAP1 POP PUSH2 0x7B1 PUSH1 0x20 DUP4 ADD DUP7 PUSH2 0x75E JUMP JUMPDEST PUSH2 0x7BE PUSH1 0x40 DUP4 ADD DUP6 PUSH2 0x779 JUMP JUMPDEST PUSH2 0x7CB PUSH1 0x60 DUP4 ADD DUP5 PUSH2 0x75E JUMP JUMPDEST SWAP6 SWAP5 POP POP POP POP POP JUMP JUMPDEST PUSH1 0x0 DUP1 REVERT JUMPDEST PUSH1 0x0 DUP1 REVERT JUMPDEST PUSH32 0x4E487B7100000000000000000000000000000000000000000000000000000000 PUSH1 0x0 MSTORE PUSH1 0x41 PUSH1 0x4 MSTORE PUSH1 0x24 PUSH1 0x0 REVERT JUMPDEST PUSH2 0x816 DUP3 PUSH2 0x6E2 JUMP JUMPDEST DUP2 ADD DUP2 DUP2 LT PUSH8 0xFFFFFFFFFFFFFFFF DUP3 GT OR ISZERO PUSH2 0x835 JUMPI PUSH2 0x834 PUSH2 0x7DE JUMP JUMPDEST JUMPDEST DUP1 PUSH1 0x40 MSTORE POP POP POP JUMP JUMPDEST PUSH1 0x0 PUSH2 0x848 PUSH2 0x625 JUMP JUMPDEST SWAP1 POP PUSH2 0x854 DUP3 DUP3 PUSH2 0x80D JUMP JUMPDEST SWAP2 SWAP1 POP JUMP JUMPDEST PUSH1 0x0 PUSH8 0xFFFFFFFFFFFFFFFF DUP3 GT ISZERO PUSH2 0x874 JUMPI PUSH2 0x873 PUSH2 0x7DE JUMP JUMPDEST JUMPDEST PUSH2 0x87D DUP3 PUSH2 0x6E2 JUMP JUMPDEST SWAP1 POP PUSH1 0x20 DUP2 ADD SWAP1 POP SWAP2 SWAP1 POP JUMP JUMPDEST DUP3 DUP2 DUP4 CALLDATACOPY PUSH1 0x0 DUP4 DUP4 ADD MSTORE POP POP POP JUMP JUMPDEST PUSH1 0x0 PUSH2 0x8AC PUSH2 0x8A7 DUP5 PUSH2 0x859 JUMP JUMPDEST PUSH2 0x83E JUMP JUMPDEST SWAP1 POP DUP3 DUP2 MSTORE PUSH1 0x20 DUP2 ADD DUP5 DUP5 DUP5 ADD GT ISZERO PUSH2 0x8C8 JUMPI PUSH2 0x8C7 PUSH2 0x7D9 JUMP JUMPDEST JUMPDEST PUSH2 0x8D3 DUP5 DUP3 DUP6 PUSH2 0x88A JUMP JUMPDEST POP SWAP4 SWAP3 POP POP POP JUMP JUMPDEST PUSH1 0x0 DUP3 PUSH1 0x1F DUP4 ADD SLT PUSH2 0x8F0 JUMPI PUSH2 0x8EF PUSH2 0x7D4 JUMP JUMPDEST JUMPDEST DUP2 CALLDATALOAD PUSH2 0x900 DUP5 DUP3 PUSH1 0x20 DUP7 ADD PUSH2 0x899 JUMP JUMPDEST SWAP2 POP POP SWAP3 SWAP2 POP POP JUMP JUMPDEST PUSH1 0x0 DUP1 PUSH1 0x40 DUP4 DUP6 SUB SLT ISZERO PUSH2 0x920 JUMPI PUSH2 0x91F PUSH2 0x62F JUMP JUMPDEST JUMPDEST PUSH1 0x0 PUSH2 0x92E DUP6 DUP3 DUP7 ADD PUSH2 0x65A JUMP JUMPDEST SWAP3 POP POP PUSH1 0x20 DUP4 ADD CALLDATALOAD PUSH8 0xFFFFFFFFFFFFFFFF DUP2 GT ISZERO PUSH2 0x94F JUMPI PUSH2 0x94E PUSH2 0x634 JUMP JUMPDEST JUMPDEST PUSH2 0x95B DUP6 DUP3 DUP7 ADD PUSH2 0x8DB JUMP JUMPDEST SWAP2 POP POP SWAP3 POP SWAP3 SWAP1 POP JUMP JUMPDEST PUSH32 0x4E487B7100000000000000000000000000000000000000000000000000000000 PUSH1 0x0 MSTORE PUSH1 0x22 PUSH1 0x4 MSTORE PUSH1 0x24 PUSH1 0x0 REVERT JUMPDEST PUSH1 0x0 PUSH1 0x2 DUP3 DIV SWAP1 POP PUSH1 0x1 DUP3 AND DUP1 PUSH2 0x9AC JUMPI PUSH1 0x7F DUP3 AND SWAP2 POP JUMPDEST PUSH1 0x20 DUP3 LT DUP2 SUB PUSH2 0x9BF JUMPI PUSH2 0x9BE PUSH2 0x965 JUMP JUMPDEST JUMPDEST POP SWAP2 SWAP1 POP JUMP JUMPDEST PUSH32 0x4A6F6220616C72656164792066696C6C65640000000000000000000000000000 PUSH1 0x0 DUP3 ADD MSTORE POP JUMP JUMPDEST PUSH1 0x0 PUSH2 0x9FB PUSH1 0x12 DUP4 PUSH2 0x6A7 JUMP JUMPDEST SWAP2 POP PUSH2 0xA06 DUP3 PUSH2 0x9C5 JUMP JUMPDEST PUSH1 0x20 DUP3 ADD SWAP1 POP SWAP2 SWAP1 POP JUMP JUMPDEST PUSH1 0x0 PUSH1 0x20 DUP3 ADD SWAP1 POP DUP2 DUP2 SUB PUSH1 0x0 DUP4 ADD MSTORE PUSH2 0xA2A DUP2 PUSH2 0x9EE JUMP JUMPDEST SWAP1 POP SWAP2 SWAP1 POP JUMP JUMPDEST PUSH1 0x0 DUP2 SWAP1 POP DUP2 PUSH1 0x0 MSTORE PUSH1 0x20 PUSH1 0x0 KECCAK256 SWAP1 POP SWAP2 SWAP1 POP JUMP JUMPDEST PUSH1 0x0 PUSH1 0x20 PUSH1 0x1F DUP4 ADD DIV SWAP1 POP SWAP2 SWAP1 POP JUMP JUMPDEST PUSH1 0x0 DUP3 DUP3 SHL SWAP1 POP SWAP3 SWAP2 POP POP JUMP JUMPDEST PUSH1 0x0 PUSH1 0x8 DUP4 MUL PUSH2 0xA93 PUSH32 0xFFFFFFFFFFFFFFFFFFFFFFFFFFFFFFFFFFFFFFFFFFFFFFFFFFFFFFFFFFFFFFFF DUP3 PUSH2 0xA56 JUMP JUMPDEST PUSH2 0xA9D DUP7 DUP4 PUSH2 0xA56 JUMP JUMPDEST SWAP6 POP DUP1 NOT DUP5 AND SWAP4 POP DUP1 DUP7 AND DUP5 OR SWAP3 POP POP POP SWAP4 SWAP3 POP POP POP JUMP JUMPDEST PUSH1 0x0 DUP2 SWAP1 POP SWAP2 SWAP1 POP JUMP JUMPDEST PUSH1 0x0 DUP2 SWAP1 POP SWAP2 SWAP1 POP JUMP JUMPDEST PUSH1 0x0 PUSH2 0xAE4 PUSH2 0xADF PUSH2 0xADA DUP5 PUSH2 0xAB5 JUMP JUMPDEST PUSH2 0xABF JUMP JUMPDEST PUSH2 0xAB5 JUMP JUMPDEST SWAP1 POP SWAP2 SWAP1 POP JUMP JUMPDEST PUSH1 0x0 DUP2 SWAP1 POP SWAP2 SWAP1 POP JUMP JUMPDEST PUSH2 0xAFE DUP4 PUSH2 0xAC9 JUMP JUMPDEST PUSH2 0xB12 PUSH2 0xB0A DUP3 PUSH2 0xAEB JUMP JUMPDEST DUP5 DUP5 SLOAD PUSH2 0xA63 JUMP JUMPDEST DUP3 SSTORE POP POP POP POP JUMP JUMPDEST PUSH1 0x0 SWAP1 JUMP JUMPDEST PUSH2 0xB27 PUSH2 0xB1A JUMP JUMPDEST PUSH2 0xB32 DUP2 DUP5 DUP5 PUSH2 0xAF5 JUMP JUMPDEST POP POP POP JUMP JUMPDEST JUMPDEST DUP2 DUP2 LT ISZERO PUSH2 0xB56 JUMPI PUSH2 0xB4B PUSH1 0x0 DUP3 PUSH2 0xB1F JUMP JUMPDEST PUSH1 0x1 DUP2 ADD SWAP1 POP PUSH2 0xB38 JUMP JUMPDEST POP POP JUMP JUMPDEST PUSH1 0x1F DUP3 GT ISZERO PUSH2 0xB9B JUMPI PUSH2 0xB6C DUP2 PUSH2 0xA31 JUMP JUMPDEST PUSH2 0xB75 DUP5 PUSH2 0xA46 JUMP JUMPDEST DUP2 ADD PUSH1 0x20 DUP6 LT ISZERO PUSH2 0xB84 JUMPI DUP2 SWAP1 POP JUMPDEST PUSH2 0xB98 PUSH2 0xB90 DUP6 PUSH2 0xA46 JUMP JUMPDEST DUP4 ADD DUP3 PUSH2 0xB37 JUMP JUMPDEST POP POP JUMPDEST POP POP POP JUMP JUMPDEST PUSH1 0x0 DUP3 DUP3 SHR SWAP1 POP SWAP3 SWAP2 POP POP JUMP JUMPDEST PUSH1 0x0 PUSH2 0xBBE PUSH1 0x0 NOT DUP5 PUSH1 0x8 MUL PUSH2 0xBA0 JUMP JUMPDEST NOT DUP1 DUP4 AND SWAP2 POP POP SWAP3 SWAP2 POP POP JUMP JUMPDEST PUSH1 0x0 PUSH2 0xBD7 DUP4 DUP4 PUSH2 0xBAD JUMP JUMPDEST SWAP2 POP DUP3 PUSH1 0x2 MUL DUP3 OR SWAP1 POP SWAP3 SWAP2 POP POP JUMP JUMPDEST PUSH2 0xBF0 DUP3 PUSH2 0x69C JUMP JUMPDEST PUSH8 0xFFFFFFFFFFFFFFFF DUP2 GT ISZERO PUSH2 0xC09 JUMPI PUSH2 0xC08 PUSH2 0x7DE JUMP JUMPDEST JUMPDEST PUSH2 0xC13 DUP3 SLOAD PUSH2 0x994 JUMP JUMPDEST PUSH2 0xC1E DUP3 DUP3 DUP6 PUSH2 0xB5A JUMP JUMPDEST PUSH1 0x0 PUSH1 0x20 SWAP1 POP PUSH1 0x1F DUP4 GT PUSH1 0x1 DUP2 EQ PUSH2 0xC51 JUMPI PUSH1 0x0 DUP5 ISZERO PUSH2 0xC3F JUMPI DUP3 DUP8 ADD MLOAD SWAP1 POP JUMPDEST PUSH2 0xC49 DUP6 DUP3 PUSH2 0xBCB JUMP JUMPDEST DUP7 SSTORE POP PUSH2 0xCB1 JUMP JUMPDEST PUSH1 0x1F NOT DUP5 AND PUSH2 0xC5F DUP7 PUSH2 0xA31 JUMP JUMPDEST PUSH1 0x0 JUMPDEST DUP3 DUP2 LT ISZERO PUSH2 0xC87 JUMPI DUP5 DUP10 ADD MLOAD DUP3 SSTORE PUSH1 0x1 DUP3 ADD SWAP2 POP PUSH1 0x20 DUP6 ADD SWAP5 POP PUSH1 0x20 DUP2 ADD SWAP1 POP PUSH2 0xC62 JUMP JUMPDEST DUP7 DUP4 LT ISZERO PUSH2 0xCA4 JUMPI DUP5 DUP10 ADD MLOAD PUSH2 0xCA0 PUSH1 0x1F DUP10 AND DUP3 PUSH2 0xBAD JUMP JUMPDEST DUP4 SSTORE POP JUMPDEST PUSH1 0x1 PUSH1 0x2 DUP9 MUL ADD DUP9 SSTORE POP POP POP JUMPDEST POP POP POP POP POP POP JUMP JUMPDEST PUSH1 0x0 PUSH1 0x20 DUP3 ADD SWAP1 POP DUP2 DUP2 SUB PUSH1 0x0 DUP4 ADD MSTORE PUSH2 0xCD3 DUP2 DUP5 PUSH2 0x6F3 JUMP JUMPDEST SWAP1 POP SWAP3 SWAP2 POP POP JUMP INVALID LOG2 PUSH5 0x6970667358 0x22 SLT KECCAK256 CREATE2 PUSH12 0xD401DE9545AE8DA0B18326A CREATE PUSH22 0x8BBABFC51A8E0D3C37DBD8DD13A13EE764736F6C6343 STOP ADDMOD BYTE STOP CALLER "
        },
        "methodIdentifiers": {
          "applyForJob(bytes32)": "a15184c7",
          "getJob(bytes32)": "f729cf0d",
          "jobs(bytes32)": "38ed7cfc",
          "postJob(bytes32,string)": "ef4f772a"
        }
      }
    }
  }
}